{
  "_format": "hh-sol-artifact-1",
  "contractName": "Ballot",
  "sourceName": "src/contracts/Ballot.sol",
  "abi": [
    {
      "inputs": [],
      "stateMutability": "nonpayable",
      "type": "constructor"
    },
    {
      "anonymous": false,
      "inputs": [
        {
          "indexed": false,
          "internalType": "string",
          "name": "msg",
          "type": "string"
        },
        {
          "components": [
            {
              "internalType": "uint256[6]",
              "name": "candidates",
              "type": "uint256[6]"
            },
            {
              "internalType": "uint256",
              "name": "totalConfirmedVotes",
              "type": "uint256"
            },
            {
              "components": [
                {
                  "internalType": "uint256",
                  "name": "candidate",
                  "type": "uint256"
                },
                {
                  "internalType": "address[]",
                  "name": "electors",
                  "type": "address[]"
                },
                {
                  "internalType": "uint256",
                  "name": "totalVotes",
                  "type": "uint256"
                }
              ],
              "internalType": "struct IHelper.Confirmed[6]",
              "name": "confirmedVotes",
              "type": "tuple[6]"
            },
            {
              "components": [
                {
                  "internalType": "address[]",
                  "name": "electors",
                  "type": "address[]"
                },
                {
                  "internalType": "uint256",
                  "name": "totalVotes",
                  "type": "uint256"
                }
              ],
              "internalType": "struct IHelper.Abstention",
              "name": "abstentionVotes",
              "type": "tuple"
            }
          ],
          "indexed": false,
          "internalType": "struct IHelper.ElectionResult",
          "name": "",
          "type": "tuple"
        }
      ],
      "name": "LogElectorVote",
      "type": "event"
    },
    {
      "anonymous": false,
      "inputs": [
        {
          "indexed": false,
          "internalType": "string",
          "name": "msg",
          "type": "string"
        },
        {
          "components": [
            {
              "internalType": "uint256[6]",
              "name": "candidates",
              "type": "uint256[6]"
            },
            {
              "internalType": "uint256",
              "name": "totalConfirmedVotes",
              "type": "uint256"
            },
            {
              "components": [
                {
                  "internalType": "uint256",
                  "name": "candidate",
                  "type": "uint256"
                },
                {
                  "internalType": "address[]",
                  "name": "electors",
                  "type": "address[]"
                },
                {
                  "internalType": "uint256",
                  "name": "totalVotes",
                  "type": "uint256"
                }
              ],
              "internalType": "struct IHelper.Confirmed[6]",
              "name": "confirmedVotes",
              "type": "tuple[6]"
            },
            {
              "components": [
                {
                  "internalType": "address[]",
                  "name": "electors",
                  "type": "address[]"
                },
                {
                  "internalType": "uint256",
                  "name": "totalVotes",
                  "type": "uint256"
                }
              ],
              "internalType": "struct IHelper.Abstention",
              "name": "abstentionVotes",
              "type": "tuple"
            }
          ],
          "indexed": false,
          "internalType": "struct IHelper.ElectionResult",
          "name": "",
          "type": "tuple"
        }
      ],
      "name": "LogStartElection",
      "type": "event"
    },
    {
      "inputs": [],
      "name": "abstainVote",
      "outputs": [],
      "stateMutability": "nonpayable",
      "type": "function"
    },
    {
      "inputs": [
        {
          "internalType": "uint256",
          "name": "candidateID",
          "type": "uint256"
        }
      ],
      "name": "confirmVote",
      "outputs": [],
      "stateMutability": "nonpayable",
      "type": "function"
    },
    {
      "inputs": [],
      "name": "getElectorHasAlreadyVoted",
      "outputs": [
        {
          "internalType": "bool",
          "name": "",
          "type": "bool"
        }
      ],
      "stateMutability": "view",
      "type": "function"
    },
    {
      "inputs": [],
      "name": "getResult",
      "outputs": [
        {
          "components": [
            {
              "internalType": "uint256[6]",
              "name": "candidates",
              "type": "uint256[6]"
            },
            {
              "internalType": "uint256",
              "name": "totalConfirmedVotes",
              "type": "uint256"
            },
            {
              "components": [
                {
                  "internalType": "uint256",
                  "name": "candidate",
                  "type": "uint256"
                },
                {
                  "internalType": "address[]",
                  "name": "electors",
                  "type": "address[]"
                },
                {
                  "internalType": "uint256",
                  "name": "totalVotes",
                  "type": "uint256"
                }
              ],
              "internalType": "struct IHelper.Confirmed[6]",
              "name": "confirmedVotes",
              "type": "tuple[6]"
            },
            {
              "components": [
                {
                  "internalType": "address[]",
                  "name": "electors",
                  "type": "address[]"
                },
                {
                  "internalType": "uint256",
                  "name": "totalVotes",
                  "type": "uint256"
                }
              ],
              "internalType": "struct IHelper.Abstention",
              "name": "abstentionVotes",
              "type": "tuple"
            }
          ],
          "internalType": "struct IHelper.ElectionResult",
          "name": "",
          "type": "tuple"
        }
      ],
      "stateMutability": "view",
      "type": "function"
    }
  ],
  "bytecode": "0x60806040523480156200001157600080fd5b50620000226200007060201b60201c565b7f8a13d3afe94c3c474f6e4e37a632fc9b64fcf26a55bf4059f9e018d43bdb56fd62000053620000d660201b60201c565b604051620000629190620007c1565b60405180910390a1620008a5565b60005b6006811015620000d3578060148260068110620000955762000094620007fa565b5b01819055508060008260068110620000b257620000b1620007fa565b5b60030201600001819055508080620000ca9062000858565b91505062000073565b50565b620000e0620002d7565b6040518060800160405280601460068060200260405190810160405280929190826006801562000126576020028201915b81548152602001906001019080831162000111575b50505050508152602001601a5481526020016000600680602002604051908101604052809291906000905b828210156200021f578382600302016040518060600160405290816000820154815260200160018201805480602002602001604051908101604052809291908181526020018280548015620001fc57602002820191906000526020600020905b8160009054906101000a900473ffffffffffffffffffffffffffffffffffffffff1673ffffffffffffffffffffffffffffffffffffffff1681526020019060010190808311620001b1575b505050505081526020016002820154815250508152602001906001019062000151565b505050508152602001601260405180604001604052908160008201805480602002602001604051908101604052809291908181526020018280548015620002bc57602002820191906000526020600020905b8160009054906101000a900473ffffffffffffffffffffffffffffffffffffffff1673ffffffffffffffffffffffffffffffffffffffff168152602001906001019080831162000271575b50505050508152602001600182015481525050815250905090565b6040518060800160405280620002ec62000317565b8152602001600081526020016200030262000339565b81526020016200031162000369565b81525090565b6040518060c00160405280600690602082028036833780820191505090505090565b6040518060c001604052806006905b6200035262000383565b815260200190600190039081620003485790505090565b604051806040016040528060608152602001600081525090565b60405180606001604052806000815260200160608152602001600081525090565b600082825260208201905092915050565b7f426567696e6e696e67206f662074686520656c656374696f6e20706572696f6460008201527f2c2062616c6c6f7420626f782072656c65617365642100000000000000000000602082015250565b600062000413603683620003a4565b91506200042082620003b5565b604082019050919050565b600060069050919050565b600081905092915050565b6000819050919050565b6000819050919050565b62000460816200044b565b82525050565b600062000474838362000455565b60208301905092915050565b6000602082019050919050565b62000498816200042b565b620004a4818462000436565b9250620004b18262000441565b8060005b83811015620004e8578151620004cc878262000466565b9650620004d98362000480565b925050600181019050620004b5565b505050505050565b600060069050919050565b600081905092915050565b6000819050919050565b600081519050919050565b600082825260208201905092915050565b6000819050602082019050919050565b600073ffffffffffffffffffffffffffffffffffffffff82169050919050565b600062000569826200053c565b9050919050565b6200057b816200055c565b82525050565b60006200058f838362000570565b60208301905092915050565b6000602082019050919050565b6000620005b58262000510565b620005c181856200051b565b9350620005ce836200052c565b8060005b8381101562000605578151620005e9888262000581565b9750620005f6836200059b565b925050600181019050620005d2565b5085935050505092915050565b60006060830160008301516200062c600086018262000455565b5060208301518482036020860152620006468282620005a8565b91505060408301516200065d604086018262000455565b508091505092915050565b600062000676838362000612565b905092915050565b6000602082019050919050565b60006200069882620004f0565b620006a48185620004fb565b935083602082028501620006b88562000506565b8060005b85811015620006fa5784840389528151620006d8858262000668565b9450620006e5836200067e565b925060208a01995050600181019050620006bc565b50829750879550505050505092915050565b600060408301600083015184820360008601526200072b8282620005a8565b915050602083015162000742602086018262000455565b508091505092915050565b6000610120830160008301516200076860008601826200048d565b5060208301516200077d60c086018262000455565b50604083015184820360e08601526200079782826200068b565b9150506060830151848203610100860152620007b482826200070c565b9150508091505092915050565b60006040820190508181036000830152620007dc8162000404565b90508181036020830152620007f281846200074d565b905092915050565b7f4e487b7100000000000000000000000000000000000000000000000000000000600052603260045260246000fd5b7f4e487b7100000000000000000000000000000000000000000000000000000000600052601160045260246000fd5b600062000865826200044b565b91507fffffffffffffffffffffffffffffffffffffffffffffffffffffffffffffffff82036200089a576200089962000829565b5b600182019050919050565b610e9c80620008b56000396000f3fe608060405234801561001057600080fd5b506004361061004c5760003560e01c806327f2702a14610051578063421365881461006f578063aa457faf14610079578063de29278914610095575b600080fd5b6100596100b3565b60405161006691906107e6565b60405180910390f35b610077610107565b005b610093600480360381019061008e919061083c565b6102af565b005b61009d610510565b6040516100aa9190610bb3565b60405180910390f35b6000601b60003373ffffffffffffffffffffffffffffffffffffffff1673ffffffffffffffffffffffffffffffffffffffff16815260200190815260200160002060009054906101000a900460ff16905090565b601b60003373ffffffffffffffffffffffffffffffffffffffff1673ffffffffffffffffffffffffffffffffffffffff16815260200190815260200160002060009054906101000a900460ff168015610195576040517f08c379a000000000000000000000000000000000000000000000000000000000815260040161018c90610c32565b60405180910390fd5b601260010160008154809291906101ab90610c81565b91905055506012600001339080600181540180825580915050600190039060005260206000200160009091909190916101000a81548173ffffffffffffffffffffffffffffffffffffffff021916908373ffffffffffffffffffffffffffffffffffffffff1602179055506001601b60003373ffffffffffffffffffffffffffffffffffffffff1673ffffffffffffffffffffffffffffffffffffffff16815260200190815260200160002060006101000a81548160ff0219169083151502179055507fea68a6719071ecc2a2941f246ba0b902a3023b5a27a335eb1a8106380ba4021f610297610510565b6040516102a49190610d15565b60405180910390a150565b806006600082101580156102c257508082105b610301576040517f08c379a00000000000000000000000000000000000000000000000000000000081526004016102f890610d96565b60405180910390fd5b601b60003373ffffffffffffffffffffffffffffffffffffffff1673ffffffffffffffffffffffffffffffffffffffff16815260200190815260200160002060009054906101000a900460ff16801561038f576040517f08c379a000000000000000000000000000000000000000000000000000000000815260040161038690610c32565b60405180910390fd5b600084600681106103a3576103a2610db6565b5b6003020160020160008154809291906103bb90610c81565b9190505550600084600681106103d4576103d3610db6565b5b60030201600101339080600181540180825580915050600190039060005260206000200160009091909190916101000a81548173ffffffffffffffffffffffffffffffffffffffff021916908373ffffffffffffffffffffffffffffffffffffffff160217905550836000856006811061045157610450610db6565b5b60030201600001819055506001601b60003373ffffffffffffffffffffffffffffffffffffffff1673ffffffffffffffffffffffffffffffffffffffff16815260200190815260200160002060006101000a81548160ff021916908315150217905550601a60008154809291906104c790610c81565b91905055507fea68a6719071ecc2a2941f246ba0b902a3023b5a27a335eb1a8106380ba4021f6104f5610510565b6040516105029190610e31565b60405180910390a150505050565b610518610707565b6040518060800160405280601460068060200260405190810160405280929190826006801561055c576020028201915b815481526020019060010190808311610548575b50505050508152602001601a5481526020016000600680602002604051908101604052809291906000905b8282101561065157838260030201604051806060016040529081600082015481526020016001820180548060200260200160405190810160405280929190818152602001828054801561062f57602002820191906000526020600020905b8160009054906101000a900473ffffffffffffffffffffffffffffffffffffffff1673ffffffffffffffffffffffffffffffffffffffff16815260200190600101908083116105e5575b5050505050815260200160028201548152505081526020019060010190610587565b5050505081526020016012604051806040016040529081600082018054806020026020016040519081016040528092919081815260200182805480156106ec57602002820191906000526020600020905b8160009054906101000a900473ffffffffffffffffffffffffffffffffffffffff1673ffffffffffffffffffffffffffffffffffffffff16815260200190600101908083116106a2575b50505050508152602001600182015481525050815250905090565b604051806080016040528061071a610741565b81526020016000815260200161072e610763565b815260200161073b610790565b81525090565b6040518060c00160405280600690602082028036833780820191505090505090565b6040518060c001604052806006905b61077a6107aa565b8152602001906001900390816107725790505090565b604051806040016040528060608152602001600081525090565b60405180606001604052806000815260200160608152602001600081525090565b60008115159050919050565b6107e0816107cb565b82525050565b60006020820190506107fb60008301846107d7565b92915050565b600080fd5b6000819050919050565b61081981610806565b811461082457600080fd5b50565b60008135905061083681610810565b92915050565b60006020828403121561085257610851610801565b5b600061086084828501610827565b91505092915050565b600060069050919050565b600081905092915050565b6000819050919050565b61089281610806565b82525050565b60006108a48383610889565b60208301905092915050565b6000602082019050919050565b6108c681610869565b6108d08184610874565b92506108db8261087f565b8060005b8381101561090c5781516108f38782610898565b96506108fe836108b0565b9250506001810190506108df565b505050505050565b600060069050919050565b600081905092915050565b6000819050919050565b600081519050919050565b600082825260208201905092915050565b6000819050602082019050919050565b600073ffffffffffffffffffffffffffffffffffffffff82169050919050565b600061098b82610960565b9050919050565b61099b81610980565b82525050565b60006109ad8383610992565b60208301905092915050565b6000602082019050919050565b60006109d182610934565b6109db818561093f565b93506109e683610950565b8060005b83811015610a175781516109fe88826109a1565b9750610a09836109b9565b9250506001810190506109ea565b5085935050505092915050565b6000606083016000830151610a3c6000860182610889565b5060208301518482036020860152610a5482826109c6565b9150506040830151610a696040860182610889565b508091505092915050565b6000610a808383610a24565b905092915050565b6000602082019050919050565b6000610aa082610914565b610aaa818561091f565b935083602082028501610abc8561092a565b8060005b85811015610af85784840389528151610ad98582610a74565b9450610ae483610a88565b925060208a01995050600181019050610ac0565b50829750879550505050505092915050565b60006040830160008301518482036000860152610b2782826109c6565b9150506020830151610b3c6020860182610889565b508091505092915050565b600061012083016000830151610b6060008601826108bd565b506020830151610b7360c0860182610889565b50604083015184820360e0860152610b8b8282610a95565b9150506060830151848203610100860152610ba68282610b0a565b9150508091505092915050565b60006020820190508181036000830152610bcd8184610b47565b905092915050565b600082825260208201905092915050565b7f5468697320656c6563746f7220616c726561647920766f746564210000000000600082015250565b6000610c1c601b83610bd5565b9150610c2782610be6565b602082019050919050565b60006020820190508181036000830152610c4b81610c0f565b9050919050565b7f4e487b7100000000000000000000000000000000000000000000000000000000600052601160045260246000fd5b6000610c8c82610806565b91507fffffffffffffffffffffffffffffffffffffffffffffffffffffffffffffffff8203610cbe57610cbd610c52565b5b600182019050919050565b7f566f7465204162737461696e656420616e6420436f6d70757465642100000000600082015250565b6000610cff601c83610bd5565b9150610d0a82610cc9565b602082019050919050565b60006040820190508181036000830152610d2e81610cf2565b90508181036020830152610d428184610b47565b905092915050565b7f546869732063616e64696461746520646f6e2774206578697374210000000000600082015250565b6000610d80601b83610bd5565b9150610d8b82610d4a565b602082019050919050565b60006020820190508181036000830152610daf81610d73565b9050919050565b7f4e487b7100000000000000000000000000000000000000000000000000000000600052603260045260246000fd5b7f566f746520436f6e6669726d656420616e6420436f6d70757465642100000000600082015250565b6000610e1b601c83610bd5565b9150610e2682610de5565b602082019050919050565b60006040820190508181036000830152610e4a81610e0e565b90508181036020830152610e5e8184610b47565b90509291505056fea26469706673582212200eb6cdac80626695d9b8bb7880ff83a246d3ed27488f5d85b6b31bd3565bd3fc64736f6c63430008110033",
  "linkReferences": {},
  "deployedLinkReferences": {}
}